{
  "address": "0x1Ea8633118ad1B7fB7e7C2817E8d6952C3c8838E",
  "abi": [
    {
      "inputs": [
        {
          "internalType": "address",
          "name": "priceFeedAdress",
          "type": "address"
        }
      ],
      "stateMutability": "nonpayable",
      "type": "constructor"
    },
    {
      "stateMutability": "payable",
      "type": "fallback"
    },
    {
      "inputs": [
        {
          "internalType": "address",
          "name": "",
          "type": "address"
        }
      ],
      "name": "AdressToUsdAMount",
      "outputs": [
        {
          "internalType": "uint256",
          "name": "",
          "type": "uint256"
        }
      ],
      "stateMutability": "view",
      "type": "function"
    },
    {
      "inputs": [],
      "name": "fund",
      "outputs": [],
      "stateMutability": "payable",
      "type": "function"
    },
    {
      "inputs": [
        {
          "internalType": "uint256",
          "name": "",
          "type": "uint256"
        }
      ],
      "name": "funders",
      "outputs": [
        {
          "internalType": "address",
          "name": "",
          "type": "address"
        }
      ],
      "stateMutability": "view",
      "type": "function"
    },
    {
      "inputs": [],
      "name": "i_owner",
      "outputs": [
        {
          "internalType": "address",
          "name": "",
          "type": "address"
        }
      ],
      "stateMutability": "view",
      "type": "function"
    },
    {
      "inputs": [],
      "name": "minimumUsd",
      "outputs": [
        {
          "internalType": "uint256",
          "name": "",
          "type": "uint256"
        }
      ],
      "stateMutability": "view",
      "type": "function"
    },
    {
      "inputs": [],
      "name": "priceFeed",
      "outputs": [
        {
          "internalType": "contract AggregatorV3Interface",
          "name": "",
          "type": "address"
        }
      ],
      "stateMutability": "view",
      "type": "function"
    },
    {
      "inputs": [],
      "name": "withdraw",
      "outputs": [],
      "stateMutability": "nonpayable",
      "type": "function"
    },
    {
      "stateMutability": "payable",
      "type": "receive"
    }
  ],
  "transactionHash": "0xab0a576e09f925dd21a8d2e2051ec42d360cb944cfe1b04f00c3cadc9969de6d",
  "args": [
    "0x694AA1769357215DE4FAC081bf1f309aDC325306"
  ],
  "numDeployments": 1,
  "solcInputHash": "c935b131a2e3bdcc821e5dcc35d6f86d",
  "bytecode": "0x60a060405234801561001057600080fd5b50604051610e60380380610e608339818101604052810190610032919061010f565b3373ffffffffffffffffffffffffffffffffffffffff1660808173ffffffffffffffffffffffffffffffffffffffff1681525050806000806101000a81548173ffffffffffffffffffffffffffffffffffffffff021916908373ffffffffffffffffffffffffffffffffffffffff1602179055505061013c565b600080fd5b600073ffffffffffffffffffffffffffffffffffffffff82169050919050565b60006100dc826100b1565b9050919050565b6100ec816100d1565b81146100f757600080fd5b50565b600081519050610109816100e3565b92915050565b600060208284031215610125576101246100ac565b5b6000610133848285016100fa565b91505092915050565b608051610d0961015760003960006104e90152610d096000f3fe6080604052600436106100745760003560e01c8063741bef1a1161004e578063741bef1a1461010c578063b60d428814610137578063dba6335f14610141578063dc0d3dff1461016c57610083565b8063098de8201461008d5780630b314e1b146100b85780633ccfd60b146100f557610083565b36610083576100816101a9565b005b61008b6101a9565b005b34801561009957600080fd5b506100a26102e2565b6040516100af91906106d1565b60405180910390f35b3480156100c457600080fd5b506100df60048036038101906100da919061074f565b6102ef565b6040516100ec91906106d1565b60405180910390f35b34801561010157600080fd5b5061010a610307565b005b34801561011857600080fd5b506101216104c3565b60405161012e91906107db565b60405180910390f35b61013f6101a9565b005b34801561014d57600080fd5b506101566104e7565b6040516101639190610805565b60405180910390f35b34801561017857600080fd5b50610193600480360381019061018e919061084c565b61050b565b6040516101a09190610805565b60405180910390f35b6802b5e3af16b18800006101e660008054906101000a900473ffffffffffffffffffffffffffffffffffffffff163461054a90919063ffffffff16565b1015610227576040517f08c379a000000000000000000000000000000000000000000000000000000000815260040161021e906108d6565b60405180910390fd5b6001339080600181540180825580915050600190039060005260206000200160009091909190916101000a81548173ffffffffffffffffffffffffffffffffffffffff021916908373ffffffffffffffffffffffffffffffffffffffff16021790555034600260003373ffffffffffffffffffffffffffffffffffffffff1673ffffffffffffffffffffffffffffffffffffffff16815260200190815260200160002060008282546102d99190610925565b92505081905550565b6802b5e3af16b188000081565b60026020528060005260406000206000915090505481565b60005b6001805490508110156103b35760006001828154811061032d5761032c610959565b5b9060005260206000200160009054906101000a900473ffffffffffffffffffffffffffffffffffffffff1690506000600260008373ffffffffffffffffffffffffffffffffffffffff1673ffffffffffffffffffffffffffffffffffffffff168152602001908152602001600020819055505080806103ab90610988565b91505061030a565b50600067ffffffffffffffff8111156103cf576103ce6109d0565b5b6040519080825280602002602001820160405280156103fd5781602001602082028036833780820191505090505b5060019080519060200190610413929190610611565b5060003373ffffffffffffffffffffffffffffffffffffffff164760405161043a90610a30565b60006040518083038185875af1925050503d8060008114610477576040519150601f19603f3d011682016040523d82523d6000602084013e61047c565b606091505b50509050806104c0576040517f08c379a00000000000000000000000000000000000000000000000000000000081526004016104b790610a91565b60405180910390fd5b50565b60008054906101000a900473ffffffffffffffffffffffffffffffffffffffff1681565b7f000000000000000000000000000000000000000000000000000000000000000081565b6001818154811061051b57600080fd5b906000526020600020016000915054906101000a900473ffffffffffffffffffffffffffffffffffffffff1681565b60008061055683610580565b9050670de0b6b3a7640000818561056d9190610ab1565b6105779190610b22565b91505092915050565b6000808273ffffffffffffffffffffffffffffffffffffffff1663feaf968c6040518163ffffffff1660e01b815260040160a060405180830381865afa1580156105ce573d6000803e3d6000fd5b505050506040513d601f19601f820116820180604052508101906105f29190610be0565b5050509150506402540be400816106099190610c5b565b915050919050565b82805482825590600052602060002090810192821561068a579160200282015b828111156106895782518260006101000a81548173ffffffffffffffffffffffffffffffffffffffff021916908373ffffffffffffffffffffffffffffffffffffffff16021790555091602001919060010190610631565b5b509050610697919061069b565b5090565b5b808211156106b457600081600090555060010161069c565b5090565b6000819050919050565b6106cb816106b8565b82525050565b60006020820190506106e660008301846106c2565b92915050565b600080fd5b600073ffffffffffffffffffffffffffffffffffffffff82169050919050565b600061071c826106f1565b9050919050565b61072c81610711565b811461073757600080fd5b50565b60008135905061074981610723565b92915050565b600060208284031215610765576107646106ec565b5b60006107738482850161073a565b91505092915050565b6000819050919050565b60006107a161079c610797846106f1565b61077c565b6106f1565b9050919050565b60006107b382610786565b9050919050565b60006107c5826107a8565b9050919050565b6107d5816107ba565b82525050565b60006020820190506107f060008301846107cc565b92915050565b6107ff81610711565b82525050565b600060208201905061081a60008301846107f6565b92915050565b610829816106b8565b811461083457600080fd5b50565b60008135905061084681610820565b92915050565b600060208284031215610862576108616106ec565b5b600061087084828501610837565b91505092915050565b600082825260208201905092915050565b7f4572726f72000000000000000000000000000000000000000000000000000000600082015250565b60006108c0600583610879565b91506108cb8261088a565b602082019050919050565b600060208201905081810360008301526108ef816108b3565b9050919050565b7f4e487b7100000000000000000000000000000000000000000000000000000000600052601160045260246000fd5b6000610930826106b8565b915061093b836106b8565b9250828201905080821115610953576109526108f6565b5b92915050565b7f4e487b7100000000000000000000000000000000000000000000000000000000600052603260045260246000fd5b6000610993826106b8565b91507fffffffffffffffffffffffffffffffffffffffffffffffffffffffffffffffff82036109c5576109c46108f6565b5b600182019050919050565b7f4e487b7100000000000000000000000000000000000000000000000000000000600052604160045260246000fd5b600081905092915050565b50565b6000610a1a6000836109ff565b9150610a2582610a0a565b600082019050919050565b6000610a3b82610a0d565b9150819050919050565b7f57697468647264617720646f73656e7420657869737400000000000000000000600082015250565b6000610a7b601683610879565b9150610a8682610a45565b602082019050919050565b60006020820190508181036000830152610aaa81610a6e565b9050919050565b6000610abc826106b8565b9150610ac7836106b8565b9250828202610ad5816106b8565b91508282048414831517610aec57610aeb6108f6565b5b5092915050565b7f4e487b7100000000000000000000000000000000000000000000000000000000600052601260045260246000fd5b6000610b2d826106b8565b9150610b38836106b8565b925082610b4857610b47610af3565b5b828204905092915050565b600069ffffffffffffffffffff82169050919050565b610b7281610b53565b8114610b7d57600080fd5b50565b600081519050610b8f81610b69565b92915050565b6000819050919050565b610ba881610b95565b8114610bb357600080fd5b50565b600081519050610bc581610b9f565b92915050565b600081519050610bda81610820565b92915050565b600080600080600060a08688031215610bfc57610bfb6106ec565b5b6000610c0a88828901610b80565b9550506020610c1b88828901610bb6565b9450506040610c2c88828901610bcb565b9350506060610c3d88828901610bcb565b9250506080610c4e88828901610b80565b9150509295509295909350565b6000610c6682610b95565b9150610c7183610b95565b9250828202610c7f81610b95565b91507f80000000000000000000000000000000000000000000000000000000000000008414600084121615610cb757610cb66108f6565b5b8282058414831517610ccc57610ccb6108f6565b5b509291505056fea2646970667358221220c2e866eabc60016d218b0c165dc50d9913d3b1a48df4b95ab1f5cd4ffb81910d64736f6c63430008120033",
  "devdoc": {
    "kind": "dev",
    "methods": {},
    "version": 1
  },
  "userdoc": {
    "kind": "user",
    "methods": {},
    "version": 1
  },
  "storageLayout": {
    "storage": [
      {
        "astId": 57,
        "contract": "contracts/FundMe.sol:FundMe",
        "label": "priceFeed",
        "offset": 0,
        "slot": "0",
        "type": "t_contract(AggregatorV3Interface)45"
      },
      {
        "astId": 77,
        "contract": "contracts/FundMe.sol:FundMe",
        "label": "funders",
        "offset": 0,
        "slot": "1",
        "type": "t_array(t_address)dyn_storage"
      },
      {
        "astId": 81,
        "contract": "contracts/FundMe.sol:FundMe",
        "label": "AdressToUsdAMount",
        "offset": 0,
        "slot": "2",
        "type": "t_mapping(t_address,t_uint256)"
      }
    ],
    "types": {
      "t_address": {
        "encoding": "inplace",
        "label": "address",
        "numberOfBytes": "20"
      },
      "t_array(t_address)dyn_storage": {
        "base": "t_address",
        "encoding": "dynamic_array",
        "label": "address[]",
        "numberOfBytes": "32"
      },
      "t_contract(AggregatorV3Interface)45": {
        "encoding": "inplace",
        "label": "contract AggregatorV3Interface",
        "numberOfBytes": "20"
      },
      "t_mapping(t_address,t_uint256)": {
        "encoding": "mapping",
        "key": "t_address",
        "label": "mapping(address => uint256)",
        "numberOfBytes": "32",
        "value": "t_uint256"
      },
      "t_uint256": {
        "encoding": "inplace",
        "label": "uint256",
        "numberOfBytes": "32"
      }
    }
  }
}